:100000000C94A4000C94CC000C94CC000C94CC0068
:100010000C94CC000C94CC000C94CC000C94CC0030
:100020000C94CC000C94CC000C94CC000C94CC0020
:100030000C94CC000C94CC000C94CC000C94CC0010
:100040000C94060C0C94CC000C94CC000C94CC00BA
:100050000C94CC000C94CC000C94CC000C94CC00F0
:100060000C94750A0C94CC0007634236B79BD8A752
:100070001A39685618AEBAAB558C1D3CB7CC5763CD
:10008000BD6DEDFD753EF6177231BF000000803F7B
:1000900008000000BE922449123EABAAAA2ABECD97
:1000A000CCCC4C3E00000080BEABAAAAAA3E000009
:1000B0000000BF000000803F000000000008417801
:1000C000D3BB4387D1133D190E3CC3BD4282AD2B38
:1000D0003E68EC8276BED98FE1A93E4C80EFFFBE30
:1000E00001C4FF7F3F00000000000000000024006A
:1000F00027002A0000000000250028002B00000037
:10010000000023002600290004040404040404045D
:1001100002020202020203030303030301020408B2
:100120001020408001020408102001020408102061
:1001300000000007000201000003040600000000A8
:1001400000000000CE00E20911241FBECFEFD8E06E
:10015000DEBFCDBF11E0A0E0B1E0E0E1F8E202C017
:1001600005900D92AC3BB107D9F712E0ACEBB1E0D2
:1001700001C01D92A33CB107E1F711E0C8E4D1E052
:1001800004C02297FE010E940214C434D107C9F7AB
:100190000E94F40D0C9406140C940000CF92EF9280
:1001A0000F9385EE91E068E047E026E005E054E03B
:1001B000E52E33E0C32E0E9466090F91EF90CF9099
:1001C00008950F931F93282F462F05EE11E0C801C5
:1001D000622F0E947908C80160E071E00E94280F38
:1001E0001F910F9108957F928F929F92AF92BF922D
:1001F000CF92DF92EF92FF920F931F93CF93DF93F3
:1002000085EE91E00E94A80885EE91E060E040E074
:100210000E94790885EE91E066E071E00E94280F67
:1002200085EE91E068E040E00E94790885EE91E07B
:100230006AE071E00E94280F85EE91E060E041E005
:100240000E94790885EE91E06EE071E00E94280F2F
:1002500085EE91E069E041E00E94790885EE91E049
:1002600061E171E00E94280F68EB7BE080E090E0A4
:100270000E944E0C1092CB011FE1C12EF0C082E013
:1002800061E00E94E10085EE91E062E041E00E94C1
:100290007908E091CB01F0E0EE0FFF1FE957FE4F28
:1002A0006081718185EE91E04AE050E00E94150F77
:1002B0001092CC01CAC083E060E00E94E10085EEAC
:1002C00091E063E040E00E947908E091CC01F0E029
:1002D000EE0FFF1FE959FE4F6081718185EE91E0BD
:1002E0004AE050E00E94C40E8BE061E00E94E10011
:1002F00060ED77E080E090E00E944E0C8BE00E9481
:10030000A10D892B09F096C068EC70E080E090E0C8
:100310000E944E0C1092BE011092BD01EE2400917D
:10032000BD011091BE0180E10E94EC0C080F191F65
:100330001093BE010093BD0161E070E080E090E0A9
:100340000E944E0CE39420E4E21649F78091CB0121
:10035000882369F48091CC018F30E1F58091BD0153
:100360009091BE019093C0018093BF0133C0813052
:1003700089F58091CC018F3069F50091BD01109114
:10038000BE016091BF017091C001601B710B80E0E4
:1003900090E028EC30E040E050E00E9498132FEA13
:1003A00030E040E050E00E94DE13020F131F109374
:1003B000C0010093BF018AEF91E06EE170E0412F30
:1003C0000E94A6098AEF91E06FE170E04091BF01C1
:1003D0000E94A6096091CB016C9DB001112480910F
:1003E000CC01680F711D660F771F4091BE018AEF27
:1003F00091E00E94A6096091CB016C9DB00111248F
:100400008091CC01680F711D660F771F6F5F7F4F62
:100410008AEF91E04091BD010E94A60985EE91E02E
:100420006BE041E00E94790885EE91E069E171E0BE
:100430000E94280F6CE271E080E090E00E944E0C78
:100440008091CC018F5F8093CC018091CC01803171
:1004500008F431CF8091CB018F5F8093CB018091E5
:10046000CB018A3008F40BCF24C085EE91E06BE01D
:1004700041E00E94790885EE91E06FE171E00E9411
:10048000280F6EEE72E080E090E00E944E0C85EE48
:1004900091E06BE041E00E94790885EE91E065E231
:1004A00071E00E94280F6EEE72E080E090E00E9402
:1004B0004E0C8AE00E94A10D0197B9F26EEE72E037
:1004C00080E090E00E944E0C1092CC015FE1752E0E
:1004D0004CE9842E4FEF942EF0C083E060E00E9440
:1004E000E10085EE91E063E040E00E947908E09150
:1004F000CC01F0E0EE0FFF1FE959FE4F60817181E2
:1005000085EE91E04AE050E00E94C40E8BE061E08D
:100510000E94E1001092CB0136C0879DB0011124EA
:100520008091CC01680F711D660F771F8AEF91E0F3
:100530000E949F09182F6091CB01C62FD0E0BE0109
:1005400095E0660F771F9A95E1F76C1B7D0B809104
:10055000CC01680F711D660F771F6F5F7F4F8AEFA9
:1005600091E00E949F09CC0FDD1FC153DE4FB12ED9
:10057000AA24A501480F511D598348838091CB01BE
:100580008F5F8093CB018091CB018A3030F260ED98
:1005900077E080E090E00E944E0C8BE00E94A10D7D
:1005A000892B09F085C01092BE011092BD01EE2486
:1005B0000091BD011091BE0180E10E94EC0C080F7A
:1005C000191F1093BE010093BD0161E070E080E04F
:1005D00090E00E944E0CE39450E4E51649F74091F8
:1005E000BD015091BE0180E0282F30E0E901CC0F21
:1005F000DD1FFE01E153FE4F008111818F5F401727
:10060000510790F32093BC01F9013197EE0FFF1FC2
:10061000DF01A153BE4FED90FC90E957FE4FC08023
:10062000D180B701641B750B80E090E0C957DE4FA5
:1006300028813981A601421B530B9A01442737FDBB
:100640004095542F0E94981324E630E040E050E09B
:100650000E949813E01AF10A00E010E0A801970147
:100660000E94DE13C89CF001C99CF00DD89CF00DCF
:100670001124E20FF31FF093E401E093E301609192
:10068000CC0170E06F527E4F660F771F8AEF91E0CA
:100690004F2F0E94A6096091CC0170E0660F771F72
:1006A0006D557C4F8AEF91E04091E3010E94A609CD
:1006B0008091CC018F5F8093CC018091CC018031FF
:1006C00008F40BCF85EE91E060E040E00E947908ED
:1006D00085EE91E06BE271E00E94280F60E177E225
:1006E00080E090E00E944E0CDF91CF911F910F911E
:1006F000FF90EF90DF90CF90BF90AF909F908F9042
:100700007F900895AF92BF92CF92DF92EF92FF92C7
:100710000F931F93CF93DF931FE08CC089E00E945B
:10072000A10D892B49F4809165018F5F809365014C
:10073000803110F0109265018AE00E94A10D892B92
:1007400051F480916501882319F41093650103C069
:100750008150809365018BE00E94A10D892B41F4AB
:1007600090E08091CD01882309F491E09093CD0130
:100770008CE00E94A10D892B41F490E08091CE0184
:10078000882309F491E09093CE0182E060E00E941A
:10079000E10085EE91E062E040E00E947908E0919E
:1007A0006501F0E0EE0FFF1FE959FE4F6081718196
:1007B00085EE91E04AE050E00E94C40E85EE91E0A3
:1007C00063E041E00E9479088091CE01882359F4CA
:1007D00085EE91E060E041E00E94790885EE91E0CD
:1007E00068E371E00AC085EE91E063E041E00E94B9
:1007F000790885EE91E06DE371E00E94280F85EEA7
:1008000091E064E041E00E9479088091CD01882365
:1008100029F485EE91E06FE371E004C085EE91E08C
:1008200061E471E00E94280F6EE571E080E090E0E5
:100830000E944E0C83B18E718E3109F06FCF909172
:10084000650180916601891709F440C090936601A3
:100850001092CB01BFE1FB2E35C08F9DB00111245A
:1008600080916501680F711D660F771F8AEF91E017
:100870000E949F09182F6091CB01C62FD0E0BE01C6
:10088000F5E0660F771FFA95E1F76C1B7D0B809101
:100890006501680F711D660F771F6F5F7F4F8AEFCD
:1008A00091E00E949F09CC0FDD1FC153DE4F00E095
:1008B0009801280F311D398328838091CB018F5FE8
:1008C0008093CB018091CB018A3038F28091CE01A8
:1008D0008823E9F41092BE011092BD01FF2400911B
:1008E000BD011091BE0180E10E94EC0C080F191FA0
:1008F0001093BE010093BD0161E070E080E090E0E4
:100900000E944E0CF39430E4F31649F78CC0109219
:10091000C1011092C2011092C3011092C401109241
:10092000C6011092C501C0E0D0E080E10E94EC0C4D
:10093000AC019C0166E0220F331F6A95E1F78091BC
:10094000DD019091DE018217930700F58091C501CA
:100950009091C60101969093C6018093C5019A01BA
:1009600040E050E08091C1019091C201A091C3018B
:10097000B091C401820F931FA41FB51F8093C101C2
:100980009093C201A093C301B093C401219643E1A7
:10099000C838D40751F6C091C501D091C60120973F
:1009A00011F16091C1017091C2018091C3019091D8
:1009B000C40156E0660F771F881F991F5A95D1F71B
:1009C0009E0140E050E00E94DE133093BE01209370
:1009D000BD01CE0162E370E00E94B7137093C801BD
:1009E0006093C70120C01092BE011092BD01FF2488
:1009F0000091BD011091BE0180E10E94EC0C080F36
:100A0000191F1093BE010093BD0161E070E080E00A
:100A100090E00E944E0CF39450E4F51649F71092C2
:100A2000C8011092C701A090BD01B090BE01E09036
:100A3000CF01F090D001EA14FB04C8F500918701C2
:100A400010918801B5016E197F0980E090E0209136
:100A5000890130918A01A801421B530B9A01442756
:100A600037FD4095542F0E94981324E630E040E073
:100A700050E00E9498132091D1013091D201A7013A
:100A8000421B530B9A0140E050E00E94DE1384E6C3
:100A900090E0BC01069FC001079F900D169F900D2E
:100AA0001124820F931F9093CA018093C901C091B2
:100AB000E101D091E201AC16BD06A0F5E0919901EB
:100AC000F0919A0184E690E0E89F8001E99F100D83
:100AD000F89F100D1124BE016A197B0980E090E097
:100AE00020919701309198012E1B3F0B442737FD31
:100AF0004095542F0E94981324E630E040E050E0E7
:100B00000E9498132091DF013091E0012C1B3D0BD6
:100B100040E050E00E94DE13021B130B1093CA0149
:100B20000093C901AE14BF0408F053C0CA15DB0519
:100B300008F04FC080E0282F30E0E901CC0FDD1F26
:100B4000FE01E153FE4F00811181982F9F5FA01697
:100B5000B10610F4892FEFCF8093BC01F9013197D2
:100B6000EE0FFF1FDF01A957BE4F2D913C91E153BE
:100B7000FE4FE080F18084E690E0289F6001299F8D
:100B8000D00C389FD00C1124B7016A197B0980E082
:100B900090E0C957DE4FE881F9812E1B3F0B4427B7
:100BA00037FD4095542F0E94981324E630E040E032
:100BB00050E00E949813E01AF10A00E010E0A8014A
:100BC00097010E94DE13C21AD30AD092CA01C092C2
:100BD000C9018091CD01813029F50091C9011091A1
:100BE000CA016091650170E06F527E4F660F771FFA
:100BF0008AEF91E00E949F09F82E6091650170E0F4
:100C0000660F771F6D557C4F8AEF91E00E949F0918
:100C1000080F111D9F2D80E0080F191F1093CA01A6
:100C20000093C9018AE060E00E94E10085EE91E056
:100C300063E471E00E94280F85EE91E06AE040E0F5
:100C40000E9479088091C9019091CA018D599F4FE6
:100C50008336910528F485EE91E06DE20E942D0E19
:100C60008091C9019091CA0164E670E00E94CB13A3
:100C700085EE91E04AE050E00E94150F85EE91E08C
:100C80006EE20E942D0E8091C9019091CA0197FDDC
:100C90000BC064E670E00E94CB130A972CF485EE3B
:100CA00091E060E30E942D0E2091C9013091CA01AC
:100CB00037FF18C0C90164E670E00E94CB1384E6D8
:100CC00090E0AC01649FC001659F900D749F900DF2
:100CD0001124821B930B0A972CF485EE91E060E3BC
:100CE0000E942D0E2091C9013091CA0137FF12C018
:100CF000C90164E670E00E94CB1384E690E0AB018A
:100D0000489FB001499F700D589F700D1124621BC0
:100D1000730B06C0C90164E670E00E94CB13BC01EE
:100D200085EE91E04AE050E00E94150F2091C90144
:100D30003091CA01C90168EE73E00E94CB13EB0148
:100D400037FD1CC0C90168EE73E00E94CB13AA27CF
:100D500097FDA095BA2FBC01CD010E94161120E08D
:100D600030E04AE754E40E947B109B01AC0160E054
:100D700070E080E291E40E942D1227C088EE93E09B
:100D8000C89FB001C99F700DD89F700D1124621BC0
:100D9000730B882777FD8095982F0E94161120E00D
:100DA00030E04AE754E40E947B109B01AC0160E014
:100DB00070E080E291E40E942D129B01AC0160E0A2
:100DC00070E080E89FE30E947B107B018C0185EE40
:100DD00091E060E041E00E94790885EE91E065E4F1
:100DE00071E00E94280F85EE91E060E041E00E94F2
:100DF00079088091CE01882331F085EE91E060E0A2
:100E000041E00E9479086091C7017091C80185EEA8
:100E100091E04AE050E00E94C40E89E061E00E9447
:100E2000E10085EE91E069E041E00E94790885EEFD
:100E300091E0A701B80122E030E00E940F1085EE9A
:100E400091E06EE041E00E94790885EE91E069E46E
:100E500071E00E94280F85EE91E06EE041E00E9473
:100E6000790885EE91E0BE014AE050E00E94150F3E
:100E7000DF91CF911F910F91FF90EF90DF90CF9076
:100E8000BF90AF90089589E060E00E940E0D89E068
:100E900061E00E944D0D8AE060E00E940E0D8AE044
:100EA00061E00E944D0D8CE060E00E940E0D8CE030
:100EB00061E00E944D0D8BE060E00E940E0D8BE022
:100EC00061E00E944D0D85EE91E060E142E020E09E
:100ED0000E94B00889E00E94A10D892B39F48AE0B4
:100EE0000E94A10D892B11F40E94F30085EE91E080
:100EF0000E94A80885EE91E060E040E00E94790839
:100F000085EE91E06CE471E00E94280F85EE91E09F
:100F100067E040E00E94790885EE91E06FE471E0BF
:100F20000E94280F85EE91E066E041E00E9479087A
:100F300085EE91E063E571E00E94280F85EE91E077
:100F400062E040E00E947908609171017091720145
:100F500085EE91E04AE050E00E94C40E08950F93A0
:100F60001F938C01FC01868160E00E944D0D81E0A1
:100F700090E00E94A70CF801868161E00E944D0D6F
:100F800081E090E00E94A70CF801868160E00E9459
:100F90004D0D84E690E00E94A70C1F910F910895DB
:100FA000CF92DF92EF92FF920F931F93CF93DF9335
:100FB000D82EC92E282F392FC9018C01C0E0D0E0CE
:100FC000E62EFF24F801878161E00E940E0DB70133
:100FD0000C2E02C0759567950A94E2F76170F801CE
:100FE00087810E944D0D21960F5F1F4FC830D1059C
:100FF00049F78D2D9C2D0E94AF07DF91CF911F9156
:101000000F91FF90EF90DF90CF900895CF92DF92F5
:10101000EF92FF920F931F93CF93DF93D82EC92E99
:10102000282F392FC9018C01C0E0D0E0E62EFF2423
:10103000F801878161E00E940E0DB7010C2E02C0FD
:10104000759567950A94E2F76170F80187810E94AF
:101050004D0D21960F5F1F4FC430D10549F78D2DDF
:101060009C2D0E94AF07DF91CF911F910F91FF90B0
:10107000EF90DF90CF9008951F93CF93DF93EC0113
:10108000162F8C81642F0E944D0D8D818F3F19F09A
:1010900060E00E944D0D8F8584FF05C0CE01612F59
:1010A0000E94D0070EC0612F70E084E075956795AF
:1010B0008A95E1F7CE010E940608CE01612F0E94B9
:1010C0000608DF91CF911F91089541E00E943C08EE
:1010D00081E090E0089540E00E943C080895FC0102
:1010E0006089862F8460808B6C60CF010E946B08C2
:1010F0000895DF93CF93CDB7DEB728970FB6F89456
:10110000DEBF0FBECDBF9C01FE013196A4EAB1E067
:1011100088E00D9001928150E1F7F9018389481729
:1011200010F0482F4150E42FF0E0EE0FFF1FEC0FBE
:10113000FD1F8181680F6068C9010E946B082896B5
:101140000FB6F894DEBF0FBECDBFCF91DF910895EB
:1011500061E00E946B0880ED97E00E94A70C089563
:10116000CF93DF93EC01423018F08F8588608F8732
:101170004B8B1C8A222329F0413019F48F8584601F
:101180008F8780E593EC0E94A70C8C8160E00E9421
:101190004D0D8E8160E00E944D0D8D818F3F19F0C5
:1011A00060E00E944D0D6F8564FD1DC0CE0163E0BF
:1011B0000E94060884E991E10E94A70CCE0163E039
:1011C0000E94060884E991E10E94A70CCE0163E029
:1011D0000E94060886E990E00E94A70CCE0162E01A
:1011E0000E94060816C06062CE010E946B0884E966
:1011F00091E10E94A70C6F856062CE010E946B088E
:1012000086E990E00E94A70C6F856062CE010E9483
:101210006B086F856062CE010E946B0884E0888B4A
:10122000CE010E946F08CE010E94A80882E0898B3F
:10123000CE0166E00E946B08DF91CF9108956F9216
:101240007F928F92AF92CF92EF920F931F93DF9383
:10125000CF93CDB7DEB73C01162F842FF301448323
:1012600025830683E782C086A18682869D85938733
:101270009E8594879F8595879889968761E00E94CF
:101280000E0DF30185818F3F19F061E00E940E0D74
:10129000F301868161E00E940E0D112319F0F30124
:1012A000178603C080E1F3018787C30160E141E055
:1012B00020E00E94B008CF91DF911F910F91EF9035
:1012C000CF90AF908F907F906F9008958F92AF9254
:1012D000CF92EF920F931F93CF93DF93DC01362FC2
:1012E000542F722F102FAE2C8C2C13961C921E9202
:1012F000129780EA91E011969C938E9300D000D0D3
:10130000EDB7FEB73196CDB7DEB7198211821282E2
:101310001382CD0161E0432F2FEF052FE72EC12E61
:101320000E941F090F900F900F900F90DF91CF91A7
:101330001F910F91EF90CF90AF908F900895F999F2
:10134000FECF72BD61BDF89A80B50895F999FECFC0
:101350001FBA72BD61BD40BD0FB6F894FA9AF99AF2
:101360000FBE089520911C0230E080911B02281BC3
:101370003109C901089540911B0280911C02481750
:1013800018F02FEF3FEF0AC0E42FF0E0E550FE4FDA
:101390008081282F30E04F5F40931B02C9010895E0
:1013A000E0911B0280911C02E81718F0EFEFFFEFAD
:1013B00006C0F0E0E550FE4F8081E82FF0E0CF015D
:1013C00008950895109243021092420288EE93E02D
:1013D000A0E0B0E08093440290934502A0934602BF
:1013E000B093470280EB91E09093410280934002DA
:1013F0000895CF92DF92EF92FF920F931F93CF93B6
:10140000DF937C016B018A0180913F028823A1F068
:10141000C0E0D0E00DC0D701ED91FC91D601AC0F3A
:10142000BD1F0190F081E02DC7016C9109952196B7
:10143000C017D10780F304C0CB01642F0E945A0A61
:10144000C801DF91CF911F910F91FF90EF90DF9036
:10145000CF900895DF93CF930F92CDB7DEB7FC0105
:10146000698380913F028823C9F080913E028032D7
:1014700038F081E090E09383828320E030E015C073
:1014800080913D02E82FF0E0E35EFD4F998190836B
:101490008F5F80933D0280933E0205C0CE0101968E
:1014A00061E00E945A0A21E030E0C9010F90CF911B
:1014B000DF910895482F613210F081E00895809106
:1014C0004C02843011F082E0089560939702A6E701
:1014D000B2E0842F9C01F90102C081918D938E2F7F
:1014E000841B8617D0F380E008951F920F920FB6E9
:1014F0000F9211242F933F934F935F936F937F939A
:101500008F939F93AF93BF93EF93FF938091B90015
:1015100090E0887F90708036910509F4F2C08136A2
:101520009105CCF58832910509F47BC0893291058B
:10153000B4F48031910509F46FC0813191053CF418
:10154000009709F447C1089709F04FC165C0883179
:10155000910509F466C0809709F047C182C08034C4
:10156000910509F4A4C08134910544F480339105B8
:1015700009F482C0C89709F038C189C08035910547
:1015800009F489C08835910509F496C0883491051D
:1015900009F02BC1AEC08839910509F413C189390E
:1015A0009105ECF48837910509F4ABC089379105B2
:1015B0004CF48836910509F4A4C08037910509F0F0
:1015C00014C19FC08838910509F4FCC08039910589
:1015D00009F49DC08038910509F007C198C0803B8F
:1015E000910509F4C6C0813B91054CF4803A910500
:1015F00009F49FC0883A910509F0F7C0BAC0803C51
:10160000910509F4E3C0883C910509F4DFC0883BEB
:10161000910509F0EAC0C2C080914D028093BB00E1
:10162000CFC09091740280917502981768F49091E0
:101630007402E92FF0E0EC5AFD4F80818093BB00EB
:101640009F5F90937402BCC080914E02882309F47E
:101650004BC085ED8093BC008091BC0084FDFCCF25
:10166000C2C080E28093B90285ED8093BC00809176
:10167000BC0084FDFCCFB7C080E38093B90285ED48
:101680008093BC008091BC0084FDFCCFACC088E39B
:101690008093B9029BC0809174029091BB00E82FA7
:1016A000F0E0EC5AFD4F90838F5F8093740290912D
:1016B00074028091750282C0809174029091BB0087
:1016C000E82FF0E0EC5AFD4F90838F5F8093740217
:1016D00080914E02882341F085ED8093BC0080917B
:1016E000BC0084FDFCCF7FC081E080934F0284EA80
:1016F0006EC085ED8093BC008091BC0084FDFCCF62
:1017000072C083E080934C021092B80259C080915D
:10171000B802803208F056C08091B8029091BB00A8
:10172000E82FF0E0E856FD4F90838F5F8093B8027A
:1017300047C08091B802803230F4E091B802F0E006
:10174000E856FD4F108285ED8093BC008091BC006F
:1017500084FDFCCF10924C026091B802E0915202DD
:10176000F091530288E992E070E009951092B80276
:101770002DC084E080934C02109296021092970242
:10178000E0915002F09151020995809197028823CF
:1017900029F481E08093970210927602909196024C
:1017A000E92FF0E0EA58FD4F80818093BB009F5FF6
:1017B000909396029091960280919702981710F458
:1017C00085EC01C085E88093BC000FC085EC809358
:1017D000BC0009C01092B90285ED8093BC008091D5
:1017E000BC0084FDFCCF10924C02FF91EF91BF91A1
:1017F000AF919F918F917F916F915F914F913F91A9
:101800002F910F900FBE0F901F9018951F920F925F
:101810000FB60F9211242F933F938F939F93AF9303
:10182000BF938091BE029091BF02A091C002B0917F
:10183000C1023091C2020196A11DB11D232F2D5F5F
:101840002D3720F02D570196A11DB11D2093C20206
:101850008093BE029093BF02A093C002B093C102D6
:101860008091BA029091BB02A091BC02B091BD02DE
:101870000196A11DB11D8093BA029093BB02A09363
:10188000BC02B093BD02BF91AF919F918F913F91E8
:101890002F910F900FBE0F901F9018959B01AC01D8
:1018A0007FB7F8948091BA029091BB02A091BC02DC
:1018B000B091BD0266B5A89B05C06F3F19F00196B7
:1018C000A11DB11D7FBFBA2FA92F982F8827860F82
:1018D000911DA11DB11D62E0880F991FAA1FBB1F9A
:1018E0006A95D1F7BC012DC0FFB7F8948091BA0278
:1018F0009091BB02A091BC02B091BD02E6B5A89B3D
:1019000005C0EF3F19F00196A11DB11DFFBFBA2F11
:10191000A92F982F88278E0F911DA11DB11DE2E0E0
:10192000880F991FAA1FBB1FEA95D1F7861B970B3B
:10193000885E9340C8F2215030404040504068518A
:101940007C4F211531054105510571F60895019728
:1019500039F0880F991F880F991F02970197F1F7A7
:101960000895789484B5826084BD84B5816084BD17
:1019700085B5826085BD85B5816085BDEEE6F0E008
:10198000808181608083E1E8F0E010828081826064
:101990008083808181608083E0E8F0E080818160E5
:1019A0008083E1EBF0E0808184608083E0EBF0E015
:1019B000808181608083EAE7F0E0808184608083B9
:1019C0008081826080838081816080838081806863
:1019D00080831092C1000895982F8E3008F09E5099
:1019E000977080919B018295880F880F807C892B4E
:1019F00080937C0080917A00806480937A0080914B
:101A00007A0086FDFCCF2091780040917900942FD8
:101A100080E030E0282B392BC9010895CF93DF9364
:101A2000482F50E0CA01845E9E4FFC013491485F0C
:101A30005E4FFA018491882369F190E0880F991F25
:101A4000FC01E651FF4FA591B491FC01EC50FF4F12
:101A5000C591D491662351F42FB7F8948C91932FAC
:101A6000909589238C93888189230BC0623061F41F
:101A70002FB7F8948C91932F909589238C9388811C
:101A8000832B88832FBF06C09FB7F8948C91832B3C
:101A90008C939FBFDF91CF910895482F50E0CA01EA
:101AA000805D9E4FFC012491CA01845E9E4FFC0123
:101AB0009491485F5E4FFA013491332309F440C09A
:101AC000222351F1233071F0243028F42130A1F089
:101AD000223011F514C02630B1F02730C1F0243087
:101AE000D9F404C0809180008F7703C0809180007A
:101AF0008F7D8093800010C084B58F7702C084B53D
:101B00008F7D84BD09C08091B0008F7703C0809124
:101B1000B0008F7D8093B000E32FF0E0EE0FFF1F49
:101B2000EC50FF4FA591B4912FB7F894662321F4A0
:101B30008C919095892302C08C91892B8C932FBF17
:101B40000895682F70E0CB01805D9E4FFC012491C9
:101B5000CB01845E9E4FFC014491685F7E4FFB0188
:101B60009491992319F420E030E03CC0222351F1F4
:101B7000233071F0243028F42130A1F0223011F507
:101B800014C02630B1F02730C1F02430D9F404C09D
:101B9000809180008F7703C0809180008F7D80933B
:101BA000800010C084B58F7702C084B58F7D84BD5E
:101BB00009C08091B0008F7703C08091B0008F7D05
:101BC0008093B000892F90E0880F991F82509F4F1B
:101BD000FC01A591B4918C9120E030E0842311F0B8
:101BE00021E030E0C9010895CF93DF930E94B10C4A
:101BF0000E944307C0E0D0E00E9482032097E1F3F7
:101C00000E940000F9CFCF92DF92EF92FF920F93E4
:101C10001F93CF93DF937C016B018A01C0E0D0E07A
:101C20000FC0D6016D916D01D701ED91FC9101902E
:101C3000F081E02DC7010995C80FD91F0150104050
:101C40000115110571F7CE01DF91CF911F910F9111
:101C5000FF90EF90DF90CF900895DC01ED91FC9123
:101C60000190F081E02D09950895CF93DF93EC0169
:101C70006115710519F420E030E00FC0DB010D9013
:101C80000020E9F71197A61BB70BE881F9810280C4
:101C9000F381E02DAD0109959C01C901DF91CF9140
:101CA00008954F925F927F928F929F92AF92BF92D0
:101CB000CF92DF92EF92FF920F931F93DF93CF9318
:101CC000CDB7DEB7A1970FB6F894DEBF0FBECDBF7C
:101CD0002C01742ECB01223008F42AE019A231E243
:101CE000C32ED12CCC0EDD1E822E9924AA24BB2417
:101CF000672D752FA50194010E94DE1379018A01D9
:101D0000C801B701A50194010E949813472D461BF5
:101D10000894C108D1084A3014F4405D01C0495C00
:101D2000F6014083E114F1040105110521F07E2C38
:101D30005F2DC801DDCFC201B6010E94350EA1960C
:101D40000FB6F894DEBF0FBECDBFCF91DF911F91CC
:101D50000F91FF90EF90DF90CF90BF90AF909F904A
:101D60008F907F905F904F900895DC012115310591
:101D700041F4ED91FC910190F081E02D642F0995E3
:101D800008950E94510E0895EF92FF920F931F93B2
:101D90009A017B0100E010E0B801A7010E94B50E96
:101DA0001F910F91FF90EF900895CF92DF92EF92E5
:101DB000FF920F931F93CF93DF93EC016A017B0196
:101DC0002115310541F4E881F9810190F081E02D80
:101DD000642F09951FC02A303105D1F477FF17C051
:101DE000E881F9810190F081E02D6DE209958C0187
:101DF00044275527BA014C195D096E097F09CE01A8
:101E00002AE00E94510E9801280F391F04C02AE0D1
:101E10000E94510E9C01C901DF91CF911F910F913A
:101E2000FF90EF90DF90CF900895EF92FF920F9385
:101E30001F937B019A010027F7FC0095102FB80132
:101E4000A7010E94D50E1F910F91FF90EF9008956A
:101E50000E94350E08957F928F929F92AF92BF920B
:101E6000CF92DF92EF92FF920F931F93CF93DF9366
:101E70004C017A018B01722ECB01BA01A8019701A6
:101E80000E947912882321F0C40167E571E021C026
:101E9000C0E0D0E057016801E894D7F8C601B50169
:101EA0002FEF3FEF4FE75FE70E947912882351F44D
:101EB000C601B5012FEF3FEF4FE75FE70E947710B4
:101EC000181614F0C1E0D0E0219739F0C4016BE599
:101ED00071E00E94350EEC0193C0C801B7012FEFED
:101EE0003FEF4FE75FE40E94C611181654F0C80197
:101EF000B7012FEF3FEF4FE75FEC0E947710882389
:101F000024F4C4016FE571E0E4CFC801B70120E01B
:101F100030E040E050E00E94771087FD03C0C0E051
:101F2000D0E00EC0D401ED91FC910190F081E02D44
:101F3000C4016DE20995EC0117FB109517F9109596
:101F400020E030E040E05FE3DD240BC0CA01B901CE
:101F500020E030E040E251E40E947B109B01AC01A4
:101F6000D394D71498F3C801B7010E9413105B01F2
:101F70006C010E94E8107B018C01C401B801A7012B
:101F80002AE030E00E94B50EC80FD91F772039F043
:101F9000C40163E671E00E94350EC80FD91FC80165
:101FA000B7010E9414119B01AC01C601B5010E944A
:101FB000121024C020E030E040E251E40E94CA1137
:101FC0007B018C010E94E3105B016C01CC24B7FC07
:101FD000C094DC2CC401B601A5012AE030E00E94C7
:101FE000D50EC80FD91FC601B5010E9416119B015D
:101FF000AC01C801B7010E9412107A947720D1F683
:10200000CE01DF91CF911F910F91FF90EF90DF9064
:10201000CF90BF90AF909F908F907F9008950E9437
:102020002B0F08955058BB27AA270ED075C166D133
:1020300030F06BD120F031F49F3F11F41EF45BC1FE
:102040000EF4E095E7FB51C1E92F77D180F3BA1781
:10205000620773078407950718F071F49EF58FC126
:102060000EF4E0950B2EBA2FA02D0B01B9019001B3
:102070000C01CA01A0011124FF27591B99F0593FF7
:1020800050F4503E68F11A16F040A22F232F342F3F
:102090004427585FF3CF469537952795A795F0408D
:1020A0005395C9F77EF41F16BA0B620B730B840BA2
:1020B000BAF09150A1F0FF0FBB1F661F771F881F5A
:1020C000C2F70EC0BA0F621F731F841F48F48795B2
:1020D00077956795B795F7959E3F08F0B3CF9395A1
:1020E000880F08F09927EE0F979587950895D9D016
:1020F00008F481E008950CD00FC107D140F0FED064
:1021000030F021F45F3F19F0F0C0511139C1F3C034
:1021100014D198F39923C9F35523B1F3951B550BAB
:10212000BB27AA2762177307840738F09F5F5F4FAA
:10213000220F331F441FAA1FA9F333D00E2E3AF0EB
:10214000E0E830D091505040E695001CCAF729D005
:10215000FE2F27D0660F771F881FBB1F2617370754
:102160004807AB07B0E809F0BB0B802DBF01FF2784
:1021700093585F4F2AF09E3F510568F0B6C000C1EA
:102180005F3FECF3983EDCF3869577956795B795BE
:10219000F7959F5FC9F7880F911D9695879597F9D9
:1021A0000895E1E0660F771F881FBB1F6217730752
:1021B0008407BA0720F0621B730B840BBA0BEE1F67
:1021C00088F7E095089504D06894B111D9C00895B6
:1021D000BCD088F09F5790F0B92F9927B751A0F045
:1021E000D1F0660F771F881F991F1AF0BA95C9F7AB
:1021F00012C0B13081F0C3D0B1E00895C0C0672FE4
:10220000782F8827B85F39F0B93FCCF3869577955A
:102210006795B395D9F73EF4909580957095619543
:102220007F4F8F4F9F4F0895E89409C097FB3EF46E
:1022300090958095709561957F4F8F4F9F4F992313
:10224000A9F0F92F96E9BB279395F6958795779591
:102250006795B795F111F8CFFAF4BB0F11F460FF51
:102260001BC06F5F7F4F8F4F9F4F16C0882311F0A9
:1022700096E911C0772321F09EE8872F762F05C0BD
:10228000662371F096E8862F70E060E02AF09A9558
:10229000660F771F881FDAF7880F9695879597F94D
:1022A0000895990F0008550FAA0BE0E8FEEF1616E7
:1022B0001706E807F907C0F012161306E407F5073A
:1022C00098F0621B730B840B950B39F40A2661F0AE
:1022D000232B242B252B21F408950A2609F4A14051
:1022E000A6958FEF811D811D089597F99F6780E85E
:1022F00070E060E008959FEF80EC089500240A9458
:102300001616170618060906089500240A941216D0
:102310001306140605060895092E0394000C11F403
:10232000882352F0BB0F40F4BF2B11F460FF04C0B0
:102330006F5F7F4F8F4F9F4F089557FD9058440F09
:10234000551F59F05F3F71F04795880F97FB991F14
:1023500061F09F3F79F087950895121613061406D1
:10236000551FF2CF4695F1DF08C01616170618065E
:10237000991FF1CF86957105610508940895E89439
:10238000BB2766277727CB0197F908958ADF08F4E2
:102390008FEF08950BD0C0CFB1DF28F0B6DF18F073
:1023A000952309F0A2CFA7CF1124EACFC6DFA0F36F
:1023B000959FD1F3950F50E0551F629FF001729FDA
:1023C000BB27F00DB11D639FAA27F00DB11DAA1FF9
:1023D000649F6627B00DA11D661F829F2227B00D46
:1023E000A11D621F739FB00DA11D621F839FA00DD1
:1023F000611D221F749F3327A00D611D231F849F21
:10240000600D211D822F762F6A2F11249F57504077
:102410008AF0E1F088234AF0EE0FFF1FBB1F661F12
:10242000771F881F91505040A9F79E3F510570F0CB
:102430005CCFA6CF5F3FECF3983EDCF386957795B3
:102440006795B795F795E7959F5FC1F7FE2B880FC6
:10245000911D9695879597F90895FA01EE0FFF1F44
:1024600030962105310599F16115710561F48038C7
:10247000BFE39B0749F168949038810561F080388B
:10248000BFEF9B0741F0992342F5FF3FE10531057E
:10249000210511F1E8940894E795D901AA2329F4BC
:1024A000AB2FBE2FF85FD0F310C0FF5F70F4A6957E
:1024B000E0F7F73950F019F0FF3A38F49F779F931F
:1024C0000CD00F9007FC905808953EF014CF60E0B8
:1024D00070E080E89FE308954FE79F775F934F9305
:1024E0003F932F93A2D02F913F914F915F9152DF55
:1024F00009C0D7DE880B990B089519F40EF0F5CEBC
:102500003ECFF9CE22DFC8F39638C0F707F80F9216
:10251000E8942BE33AEA48EB5FE74ADF0F920F9229
:102520000F924DB75EB70F92C0D0E8E6F0E016D03C
:102530004F915F91EF91FF91E595EE1FFF1F49F0DD
:10254000FE57E0684427EE0F441FFA95E1F74195E6
:10255000550B32D00F9007FE26C00895DF93CF931E
:102560001F930F93FF92EF92DF927B018C0168948F
:1025700005C0DA2EEF011ADFFE01E894A59125913E
:10258000359145915591AEF3EF015EDDFE01970166
:10259000A801DA9479F7DF90EF90FF900F911F91E7
:1025A000CF91DF9108959B01AC0160E070E080E87D
:1025B0009FE3A1CD9ACEACC0C8DEE8F39923D9F34E
:1025C000940F511DBBF39150504094F059F0882363
:1025D00032F0660F771F881F91505040C1F79E3F21
:1025E000510544F7880F911D9695879597F90895A1
:1025F0005F3FACF0983E9CF0BB278695779567953A
:10260000B79508F4B1609395C1F7BB0F58F711F473
:1026100060FFE8CF6F5F7F4F8F4F9F4FE3CFB0CE0C
:102620000EF076C068CE689460CE8FDEC8F3992332
:10263000D1F3C6F3DF93CF931F930F93FF92C92F6C
:10264000DD2788232AF02197660F771F881FDAF786
:1026500020E030E040E85FEB9FE3883920F0803EE7
:1026600030F021968F77DFDCE0E9F0E003C0DBDCBF
:10267000EDEBF0E073DF8B01BE01EC01FB2E6F5739
:1026800071097595771F880B990BD0DD28E132E72A
:1026900041E35FE38BDEAF2D9801AE01FF900F9118
:1026A0001F91CF91DF91D0DC37CEFA01DC01AA0F68
:1026B000BB1F9B01AC01BF5728F4222733274427B7
:1026C00050781FC0B75188F4AB2F0024469537953A
:1026D0002795011CA395D2F3002069F0220F331F28
:1026E000441FB395DAF30DD09DCC61307105A0E89D
:1026F0008A07B94630F49B01AC0166277727882703
:102700009078309621F0208331834283538308955B
:102710009F3F49F0915028F4869577956795B79536
:102720009F5F80389F4F880F9695879597F90895FA
:10273000629FD001739FF001829FE00DF11D649FA5
:10274000E00DF11D929FF00D839FF00D749FF00D31
:10275000659FF00D9927729FB00DE11DF91F639FD2
:10276000B00DE11DF91FBD01CF0111240895AA1B71
:10277000BB1B51E107C0AA1FBB1FA617B70710F06C
:10278000A61BB70B881F991F5A95A9F7809590959E
:10279000BC01CD01089597FB092E07260AD077FDCD
:1027A00004D0E5DF06D000201AF4709561957F4FC4
:1027B0000895F6F7909581959F4F0895A1E21A2EFE
:1027C000AA1BBB1BFD010DC0AA1FBB1FEE1FFF1FD5
:1027D000A217B307E407F50720F0A21BB30BE40B25
:1027E000F50B661F771F881F991F1A9469F760956C
:1027F0007095809590959B01AC01BD01CF01089526
:10280000EE0FFF1F0590F491E02D0994F894FFCF8F
:1028100020202020200046723D0044743D00413DB0
:1028200000573D2020202020005752495445002DBC
:1028300033306462002020462D200020202046698D
:102840006E696368202020002020202D0025002DA7
:10285000004100200020202000202000463D0044B0
:10286000623D006D573D006E616E00696E66006FDF
:102870007666002E0005049100B301640393034CB7
:102880000400055005080788098C0AE40C3011186B
:1028900015E015A8160C170000FEFFFBFFF6FFF170
:1028A000FFECFFE7FFE2FFDDFFD8FF0100000000C3
:1028B0006508030E000040001400540000000000F2
:0C28C0002A0AF909B209BB09D009E10994
:00000001FF
